{
  "_format": "hh-sol-artifact-1",
  "contractName": "Whitelist",
  "sourceName": "contracts/whitelist.sol",
  "abi": [
    {
      "inputs": [
        {
          "internalType": "uint8",
          "name": "_maxWhitelistedAddresses",
          "type": "uint8"
        }
      ],
      "stateMutability": "nonpayable",
      "type": "constructor"
    },
    {
      "inputs": [],
      "name": "addAddressToWhitelist",
      "outputs": [],
      "stateMutability": "nonpayable",
      "type": "function"
    },
    {
      "inputs": [],
      "name": "maxWhitelistedAddresses",
      "outputs": [
        {
          "internalType": "uint256",
          "name": "",
          "type": "uint256"
        }
      ],
      "stateMutability": "view",
      "type": "function"
    },
    {
      "inputs": [],
      "name": "numAddressesWhitelisted",
      "outputs": [
        {
          "internalType": "uint8",
          "name": "",
          "type": "uint8"
        }
      ],
      "stateMutability": "view",
      "type": "function"
    },
    {
      "inputs": [
        {
          "internalType": "address",
          "name": "",
          "type": "address"
        }
      ],
      "name": "whitelistedAddresses",
      "outputs": [
        {
          "internalType": "bool",
          "name": "",
          "type": "bool"
        }
      ],
      "stateMutability": "view",
      "type": "function"
    }
  ],
  "bytecode": "0x608060405234801561001057600080fd5b5060405161062f38038061062f83398181016040528101906100329190610080565b8060ff16600081905550506100ad565b600080fd5b600060ff82169050919050565b61005d81610047565b811461006857600080fd5b50565b60008151905061007a81610054565b92915050565b60006020828403121561009657610095610042565b5b60006100a48482850161006b565b91505092915050565b610573806100bc6000396000f3fe608060405234801561001057600080fd5b506004361061004c5760003560e01c806306c933d81461005157806331a72188146100815780634011d7cd1461009f5780638e7314d9146100bd575b600080fd5b61006b600480360381019061006691906102d6565b6100c7565b604051610078919061031e565b60405180910390f35b6100896100e7565b6040516100969190610352565b60405180910390f35b6100a76100ed565b6040516100b49190610389565b60405180910390f35b6100c5610100565b005b60016020528060005260406000206000915054906101000a900460ff1681565b60005481565b600260009054906101000a900460ff1681565b600160003373ffffffffffffffffffffffffffffffffffffffff1673ffffffffffffffffffffffffffffffffffffffff16815260200190815260200160002060009054906101000a900460ff161561018d576040517f08c379a000000000000000000000000000000000000000000000000000000000815260040161018490610427565b60405180910390fd5b600054600260009054906101000a900460ff1660ff16106101e3576040517f08c379a00000000000000000000000000000000000000000000000000000000081526004016101da906104b9565b60405180910390fd5b60018060003373ffffffffffffffffffffffffffffffffffffffff1673ffffffffffffffffffffffffffffffffffffffff16815260200190815260200160002060006101000a81548160ff0219169083151502179055506001600260008282829054906101000a900460ff166102599190610508565b92506101000a81548160ff021916908360ff160217905550565b600080fd5b600073ffffffffffffffffffffffffffffffffffffffff82169050919050565b60006102a382610278565b9050919050565b6102b381610298565b81146102be57600080fd5b50565b6000813590506102d0816102aa565b92915050565b6000602082840312156102ec576102eb610273565b5b60006102fa848285016102c1565b91505092915050565b60008115159050919050565b61031881610303565b82525050565b6000602082019050610333600083018461030f565b92915050565b6000819050919050565b61034c81610339565b82525050565b60006020820190506103676000830184610343565b92915050565b600060ff82169050919050565b6103838161036d565b82525050565b600060208201905061039e600083018461037a565b92915050565b600082825260208201905092915050565b7f53656e6465722068617320616c7265616479206265656e2077686974656c697360008201527f7465640000000000000000000000000000000000000000000000000000000000602082015250565b60006104116023836103a4565b915061041c826103b5565b604082019050919050565b6000602082019050818103600083015261044081610404565b9050919050565b7f4d6f7265206164647265737365732063616e742062652061646465642c206c6960008201527f6d69742072656163686564000000000000000000000000000000000000000000602082015250565b60006104a3602b836103a4565b91506104ae82610447565b604082019050919050565b600060208201905081810360008301526104d281610496565b9050919050565b7f4e487b7100000000000000000000000000000000000000000000000000000000600052601160045260246000fd5b60006105138261036d565b915061051e8361036d565b9250828201905060ff811115610537576105366104d9565b5b9291505056fea26469706673582212204c2e6bd950e9b1d1c1a5e222e0f3c671202ed4039327db61d9f3945c7377a45664736f6c63430008110033",
  "linkReferences": {},
  "deployedLinkReferences": {}
}